:1000000093C0A6C2ACC0ABC0AAC0A9C0A8C0A7C0BC
:10001000A6C0A5C0A4C0A3C0A2C0A1C0A0C09FC0CC
:100020009EC09DC09CC06E616E00696E66000040FF
:100030007A10F35A00A0724E18090010A5D4E800F7
:1000400000E87648170000E40B54020000CA9A3B0F
:10005000000000E1F5050000809698000000404295
:100060000F000000A0860100000010270000000023
:10007000E803000000006400000000000A00000027
:1000800000000100000000002C76D888DC674F08D3
:1000900023DFC1DFAE59E1B1B796E5E3E453C63AD9
:1000A000E651997696E8E6C28426EB898C9B62ED50
:1000B000407C6FFCEFBC9C9F40F2BAA56FA5F4900A
:1000C000055A2AF75C936B6CF9676DC11BFCE0E481
:1000D0000D47FEF520E6B500D0ED902E03009435D7
:1000E00077050080841E080000204E0A000000C82A
:1000F0000C333333330F986E12831141EF8D21147B
:10010000893BE65516CFFEE6DB18D1844B381BF74A
:100110007C1D901DA4BBE424203284725E228100E9
:10012000C9F124ECA1E53D2711241FBECFE5D4E0A1
:10013000DEBFCDBF11E0A0E6B0E0ECE5F6E102C025
:1001400005900D92A434B107D9F711E0A4E4B1E011
:1001500001C01D92A734B107E1F75ED47DCA50CF2C
:10016000662311F0C29A01C0C29893988C9A8D9A16
:100170008E9A8F9A979896989598949887FD979AC3
:1001800086FD969A85FD959A84FD949AC09A00C042
:10019000C098979896989598949883FD979A82FD21
:1001A000969A81FD959A80FD949AC09A00C0C09855
:1001B000949A959A969A979A0895882311F0C29ADC
:1001C00001C0C298939A8C988D988E988F98C09AF7
:1001D00000C0849B02C080E101C080E085998062FC
:1001E0008699806487998068C09800C0C09A00C0D2
:1001F00084998160859982608699846087998860F6
:10020000C098089580E0D9DF87FDFCCF84E090E0BE
:100210000197F1F780E0D1DF08951F93182FF2DFE7
:10022000812F60E09DDF1F9108951F93182FEADF53
:10023000812F61E095DF1F910895662311F48058A6
:1002400001C08054EADF0895DDDF90E0089581E089
:10025000E4DF089582E0E1DF08951F93182FD2DFD5
:100260001A3041F4803410F080E001C080E48058FE
:10027000D4DF03C0812F61E073DF1F910895CF9316
:10028000DF93EC0101C0E9DF89918823E1F7DF9179
:10029000CF910895CF93DF93EC0101C0DEDFFE0123
:1002A000219684918823D1F7DF91CF9108951F93F0
:1002B000182FBA9A8B9AB89A8C9A8D9A8E9A8F9A8E
:1002C00080E09DE70197F1F7959A949AC09A00C053
:1002D000C09880E097E20197F1F7C09A00C0C098FB
:1002E00080E890E0FC013197F1F7C09A00C0C09817
:1002F000FC013197F1F79498C09A00C0C09801971B
:10030000F1F788E28ADF88E088DFA1DF86E085DF19
:10031000812F83DF1F91089510BC87E689B988E19A
:100320008AB986E880BD899A889808955D9BFECF3A
:100330008CB980E090E00895FC0104C05D9BFECF85
:1003400031968CB980818823C9F70895A5E0B0E083
:10035000EBEAF1E0B2C7182FF894A09AA89A84ECBF
:1003600099E020E931E0F9013197F1F70197D9F7E8
:10037000A89888EC90E020E931E0F9013197F1F795
:100380000197D9F71D821C821B821A821982A89AB2
:1003900085ED8A95F1F7A09823B3217070E060E0B5
:1003A00005E0DE01119624C0802F8A95F1F73F5FAA
:1003B00083B390E08170907048175907A9F32130FA
:1003C00089F4633078F0872F869586958695FD01B0
:1003D000E80FF11D8081880F8083383210F0816032
:1003E00080837F5F83B36F5F643531F0282F217086
:1003F00030E0422F50E0DCCF789449815B818A81E4
:10040000242F30E0280F311D250F311D8C81280F3E
:10041000311D8D8190E02817390729F4112339F017
:10042000113021F405C080E690E086DF02C0452F40
:10043000842F2596E4E05DC70F931F93CF93DF933E
:100440008C01E0E1F7E240E0C0E0D0E0C801BF018C
:10045000FFD6262F662329F4442319F4E130F10551
:1004600031F45D9BFECF205D2CB9205341E0CF01DC
:100470006AE070E0EDD62196C530D10571F0822F8B
:1004800090E09C012E9FC0012F9F900D3E9F900DEC
:100490001124081B190BFB01D9CFDF91CF911F91BC
:1004A0000F910895B99A1BBC1ABC20E040E65AEEA1
:1004B0008AB59BB501969BBD8ABDCA010197F1F72C
:1004C0002F5F2F3FA9F708958FEF90E09BBD8ABD66
:1004D0002FEF40E65AEE8AB59BB501979BBD8ABDCA
:1004E000CA010197F1F72150B1F7B99808951BBCE3
:1004F0001ABC84EF91E020E931E0F9013197F1F77E
:100500000197D9F78FEF90E09BBD8ABD84EF91E012
:1005100020E931E0F9013197F1F70197D9F71BBCD8
:100520001ABC84EF91E020E931E0F9013197F1F74D
:100530000197D9F78FEF90E09BBD8ABD88EE93E0DD
:1005400020E931E0F9013197F1F70197D9F70895E2
:100550001F920F920FB60F9211242F933F934F9338
:100560005F936F937F938F939F93AF93BF93EF931B
:10057000FF9388E893E120E931E0F9013197F1F741
:100580000197D9F78AB59BB58F3F910509F08ADFAE
:1005900080E197E220E931E0F9013197F1F7019725
:1005A000D9F780E197E220E931E0F9013197F1F7DD
:1005B0000197D9F782992AC09ADF80E197E220E972
:1005C00031E0F9013197F1F70197D9F780E197E22E
:1005D00020E931E0F9013197F1F70197D9F78299D4
:1005E0001AC085DF80E197E220E931E0F901319717
:1005F000F1F70197D9F780914401813019F41092F5
:10060000440109C081E08093440105C08AB59BB5CF
:10061000892B09F059DFFF91EF91BF91AF919F9125
:100620008F917F916F915F914F913F912F910F909B
:100630000FBE0F901F9018959C0143E0220F331FAF
:100640004A95E1F7280F391FC90180569F4F65E091
:1006500070E0FED5CB010895282F30E080E392E0D2
:10066000AC01429FC001439F900D529F900D1124F9
:100670008056904F220F331F220F331F70E0A901C5
:10068000469F9001479F300D569F300D1124820FD9
:10069000931F64E670E0F0D5CB010895A4E6B0E0C6
:1006A000E3E5F3E00CC69C01CE010196243631054A
:1006B000C8F44DB75EB74A5050400FB6F8945EBFCD
:1006C0000FBE4DBFEDB7FEB73196ADB7BEB71296B0
:1006D0009C938E93119784E690E09383828382E7C4
:1006E00090E018C04DB75EB74A5050400FB6F8942E
:1006F0005EBF0FBE4DBFEDB7FEB73196ADB7BEB70B
:1007000012969C938E93119784E690E09383828354
:1007100089E790E095838483C9016AE070E098D509
:1007200077836683C9016AE070E092D591878087FC
:1007300007D72DB73EB7265F3F4F0FB6F8943EBFA1
:100740000FBE2DBFAE014F5F842FCC59DF4FE2E0CB
:10075000D2C5A4E6B0E0EEEAF3E0B1C59C01CE015B
:1007600001962A303105C8F44DB75EB74850504065
:100770000FB6F8945EBF0FBE4DBFEDB7FEB7319612
:10078000ADB7BEB712969C938E93119784E690E016
:10079000938382838FE790E018C04DB75EB74850CF
:1007A00050400FB6F8945EBF0FBE4DBFEDB7FEB719
:1007B0003196ADB7BEB712969C938E93119784E68F
:1007C00090E09383828383E890E0958384833783EA
:1007D0002683B6D62DB73EB7285F3F4F0FB6F894A5
:1007E0003EBF0FBE2DBFAE014F5F842FCC59DF4FF0
:1007F000E2E081C5CF93DF93C0914101D0914201E6
:10080000369A3699FECF64B175B180E090E028E861
:1008100033E140E050E0FDD4EAE095958795779587
:100820006795EA95D1F76F50704080409040C60FB1
:10083000D71FD695C795D0934201C093410180E060
:1008400085DD8093450181E081DD809346018091C3
:100850004401882309F05BC084E060E0EEDC809115
:100860004101909142011ADF992787FD909507DD9C
:1008700089E060E0E2DC83E4F0DC8BE061E0DDDC79
:100880008091450160914601E7DE08DF992787FDE9
:100890009095F5DC84E061E0D0DC8091450190E04A
:1008A00058DF992787FD9095EADC89E061E0C5DC97
:1008B00083E4D3DC86E890E03FDD809141019091B4
:1008C0004201ECDE992787FD909536DD80E990E0C6
:1008D00033DD84E990E030DD8091450190E039DF3F
:1008E000992787FD909528DD8EE990E025DD84EA43
:1008F00090E022DD8091450160914601ADDECEDEC3
:10090000992787FD909518DD8EE990E068C084E016
:1009100060E093DC80914101909142016AE070E0D7
:1009200097D4CB0189DE15DF992787FD9095A7DC49
:1009300089E060E082DC86E490DC8BE061E07DDCD5
:10094000809145016091460187DE76DEA7DE99271A
:1009500087FD909594DC84E061E06FDC8091450137
:1009600090E06ADEF6DE992787FD909588DC89E0C5
:1009700061E063DC86E471DC86E890E0DDDC809198
:1009800041019091420158DE6AE070E061D4CB01F0
:10099000E0DE992787FD9095CFDC8EEA90E0CCDCF5
:1009A00084E990E0C9DC8091450190E045DED1DE2C
:1009B000992787FD9095C0DC8EEA90E0BDDC84EA43
:1009C00090E0BADC809145016091460145DE34DE5D
:1009D00065DE992787FD9095AFDC8EEA90E0ACDC70
:1009E0008DE060E02ADC8091460190E0B2DE99273C
:1009F00087FD909544DC84EB90E09EDC809146017D
:100A000090E0A7DE992787FD909596DC8EEB90E02D
:100A100093DCDF91CF910895CF93DF9320E42BBF38
:100A20008A98929A8FB580688FBD8FB582608FBD8E
:100A30008EB588618EBD8EB582608EBD8FEF90E0E1
:100A400097BD86BD1BBC1ABCA19827B9389A87E010
:100A500086B9379A61DC8CE02ADC84EC90E06CDCAF
:100A600080E197E220E931E0F9013197F1F7019750
:100A7000D9F7EDDB8CED90E002DC8EEE90E0FFDB51
:100A800011DD80E197E220E931E0F9013197F1F7DA
:100A90000197D9F780E197E220E931E0F901319738
:100AA000F1F70197D9F7D3DB8FEF90E0E8DB81E135
:100AB00091E0E5DB80E197E220E931E0F90131974F
:100AC000F1F70197D9F780E197E220E931E0F901E8
:100AD0003197F1F70197D9F7BADB80E060E0ADDB41
:100AE00082E291E0CCDB8FEDB8DB8AE061E0A5DB50
:100AF0008BE291E0C4DB8FEDB0DB8FE291E0BFDBF6
:100B000080E061E09ADB82E391E0B9DB8FEDA5DB69
:100B10008BE060E092DB8BE391E0B1DB78946ADEFE
:100B200020E0C0E9D1E008C080E197E2FE01319702
:100B3000F1F70197D9F72F5F2F31B0F35BDE20E09B
:100B4000F3CFA1E1B0E0E6EAF5E0A9C33C017F877D
:100B50006E876A01FC0117821682838181FD03C0C2
:100B60006FEF7FEF52C39E012F5F3F4F398B288B72
:100B7000F3012381EE85FF8523FD859123FF81917C
:100B8000FF87EE87882309F43DC3853251F4EE8553
:100B9000FF8523FD859123FF8191FF87EE878532B5
:100BA00021F490E0B301A0D4E3CF982F10E0882483
:100BB00099241032B0F49B3269F09C3228F49032C0
:100BC00051F0933271F40BC09D3239F0903349F4F7
:100BD000116028C01260146025C0186023C0106125
:100BE00021C017FD2AC0892F80538A3078F416FF60
:100BF00006C0FAE09F9E902C1124980E13C03AE094
:100C0000839E802C1124880E10620CC09E3221F429
:100C100016FDF8C2106406C09C3611F4106802C0BC
:100C2000983659F4EE85FF8523FD959123FF919128
:100C3000FF87EE87992309F0BCCF892F8554833035
:100C400020F4812F8061905E07C0892F8556833004
:100C500008F08FC1812F8F7E86FD02C076E0972E2F
:100C60006FE3F62EF822953619F4F0E4FF2A07C058
:100C7000963619F420E8F22A02C091109A94F7FEF1
:100C80000AC03BE3391518F45CE3B52E02C0B92C59
:100C9000B39427E009C047E0491520F4BB2447E09E
:100CA000942EF7CF292DBB24C60104969D878C87EF
:100CB000F6016081718182819381AE014F5F5F4F48
:100CC0000B2D24D36C010981202E332400FF04C096
:100CD00003FD02C01DE209C0F1FE02C01BE205C017
:100CE000F2FC02C010E001C010E2C1018C709070F3
:100CF000892BA1F1112311F483E001C084E0881550
:100D000010F0882409C0881AF3FC06C080E290E045
:100D1000B301EAD38A94D1F7112321F0812F90E017
:100D2000B301E2D323FE03C006E210E00DC00AE2E5
:100D300010E00AC0E114F10409F0805290E0B30120
:100D4000D3D30F5F1F4F05C0EF2CFF24F0E1EF223C
:100D5000FF24F8018491882369F708C1F7FE12C0C7
:100D6000BC0C24FE04C08A81813309F4BA941B149C
:100D70001CF0BB24B3942DC0F8E0FB1550F538E00F
:100D8000B32E27C0F6FC25C0892D90E08C159D055B
:100D90004CF02CEFC2162FEFD20624F030E8F32AE5
:100DA00001C09A94992049F0E2E0F0E0EC0FFD1FB9
:100DB000E90DF11D80818033A1F3F7FE0AC0B92C43
:100DC000B394892D90E0C816D90614F0992401C077
:100DD0009C18F7FC03C025E030E009C01C141D047A
:100DE0001CF021E030E003C096012F5F3F4F11233C
:100DF00011F02F5F3F4F992029F0892D90E0019647
:100E0000280F391F882D90E02817390714F08824FF
:100E100001C0821A4F2C5524C20189709070892B11
:100E200031F007C080E290E0B3015ED38A9488205D
:100E3000C9F7112321F0812F90E0B30155D343FE70
:100E400006C007C080E390E0B3014ED38A948820A7
:100E5000C9F7F7FE44C08601D7FE02C000E010E0EB
:100E600076010894E11CF11CE01AF10A41E050E01F
:100E70004C0F5D1FE40EF51E26014B185108892DFD
:100E800090E0AA24BB24A81AB90A5FEF0F3F150708
:100E900021F48EE290E0B30127D3C016D10634F0DE
:100EA000401651061CF4F701808101C080E3015017
:100EB00010400894E11CF11C0A151B0524F090E079
:100EC000B30112D3E2CF0C151D0539F49A81963384
:100ED00018F4953311F424FE81E390E045C08A8133
:100EE000813309F00F7E90E0B301FED2992091F09A
:100EF0008EE290E0B301F8D212E0E1E0F0E0EC0F16
:100F0000FD1FE10FF11D1F5F808190E0B301ECD266
:100F10009A9499F744FC03C085E690E002C085E40A
:100F200090E0B301E1D2D7FC05C0C114D10441F473
:100F300004FF06C0D094C194D108D3948DE201C0BF
:100F40008BE290E0B301D0D280E305C08F5F26EF43
:100F50003FEFC20ED31E3AE0C316D104BCF790E0B7
:100F6000B301C2D2C601C096B301BED2CC84DD8427
:100F700046C1933631F0933799F0933509F055C057
:100F800022C0F601808189835E010894A11CB11CF6
:100F900022E030E0C20ED31E21E0E22EF12C11C07F
:100FA000F601A080B18016FD03C06FEF7FEF02C095
:100FB000692D70E022E030E0C20ED31EC50189D257
:100FC0007C011F7712C0F601A080B18016FD03C01E
:100FD0006FEF7FEF02C0692D70E022E030E0C20EBB
:100FE000D31EC5016BD27C01106813FF06C019C067
:100FF00080E290E0B30178D28A94882D90E0E816E0
:10100000F906B0F30EC0F50117FD859117FF819128
:101010005F0190E0B30168D281108A940894E108DE
:10102000F108E114F10479F7EAC0943611F0993629
:1010300081F517FF08C0F60120813181428153817B
:1010400084E090E00AC0F601808191819C014427F0
:1010500037FD4095542F82E090E0C80ED91E9FE6E0
:10106000F92EF12257FF09C05095409530952195F2
:101070003F4F4F4F5F4F90E8F92ACA01B901AE01C7
:101080004F5F5F4F2AE030E089D2E82EE889EE1A00
:1010900040C0953721F41F7E2AE030E01CC0197F44
:1010A0009F3661F0903720F4983509F0ABC00FC03F
:1010B000903739F0983709F0A5C004C028E030E037
:1010C0000AC0106114FD146020E130E004C014FD7A
:1010D000166020E132E017FF08C0F60160817181DF
:1010E0008281938144E050E008C0F60180819181C3
:1010F000BC0180E090E042E050E0C40ED51EAE019D
:101100004F5F5F4F4BD2E82E5889E51A8FE7F82ED4
:10111000F122F6FE0BC08EEFF822E91438F4F4FE4B
:1011200007C0F2FC05C09FEEF92202C01E2D01C0CF
:10113000192DF4FE0DC0FE01EE0DF11D80818033EE
:1011400019F4E9EEFE2208C01F5FF2FE05C003C0DD
:101150008F2D867809F01F5F0F2DF3FC13C0F0FE72
:101160000EC0181510F09E2C0AC09E2C980C911AD7
:10117000182D05C080E290E0B301B6D11F5F1815AD
:10118000C8F304C0181510F4811A01C0882404FFA4
:101190000EC080E390E0B301A7D102FF1BC001FDA8
:1011A00003C088E790E00EC088E590E00BC0802F78
:1011B000867881F001FF02C08BE201C080E2F7FC7B
:1011C0008DE290E0B30190D105C080E390E0B301DF
:1011D0008BD19A94E914C8F3EA94E1E0F0E0EC0FC3
:1011E000FD1FEE0DF11D808190E0B3017DD1EE2059
:1011F00099F705C080E290E0B30176D18A94882007
:10120000C9F7B6CCF30166817781CB016196E2E143
:1012100062C0629FD001739FF001829FE00DF11DBB
:10122000649FE00DF11D929FF00D839FF00D749F60
:10123000F00D659FF00D9927729FB00DE11DF91F0C
:10124000639FB00DE11DF91FBD01CF011124089569
:10125000AA1BBB1B51E107C0AA1FBB1FA617B707DC
:1012600010F0A61BB70B881F991F5A95A9F78095F8
:101270009095BC01CD01089597FB092E07260AD051
:1012800077FD04D0E5DF06D000201AF47095619553
:101290007F4F0895F6F7909581959F4F08952F926F
:1012A0003F924F925F926F927F928F929F92AF92F6
:1012B000BF92CF92DF92EF92FF920F931F93CF9343
:1012C000DF93CDB7DEB7CA1BDB0B0FB6F894DEBFDA
:1012D0000FBECDBF09942A88398848885F846E8400
:1012E0007D848C849B84AA84B984C884DF80EE804A
:1012F000FD800C811B81AA81B981CE0FD11D0FB653
:10130000F894DEBF0FBECDBFED010895283008F080
:1013100027E03327DA01990F311D87FD9160009690
:101320006105710539F432602E5F3D9330E32A95F3
:10133000E1F708959F3F30F080387105610509F0AD
:101340003C5F3C5F3D93913008F08068911DDF93D6
:10135000CF931F930F93FF92EF92192F987F96953B
:10136000E92F96959695E90FFF27E857FF4F9927A4
:101370003327EE24FF24A701E70105900894079482
:1013800028F4360FE71EF81E491F511D660F771F00
:10139000881F991F0694A1F70590079428F4E70E7B
:1013A000F81E491F561FC11D770F881F991F661F02
:1013B0000694A1F70590079428F4F80E491F561FCC
:1013C000C71FD11D880F991F661F771F0694A1F7AD
:1013D0000590079420F4490F561FC71FD81F990F77
:1013E000661F771F881F0694A9F7849110951770C0
:1013F00041F0D695C79557954795F794E7941A9578
:10140000C1F7EEE2F0E06894159015913591659181
:10141000959105907FE27395E118F10A430B560B05
:10142000C90BD009C0F7E10CF11E431F561FC91F9D
:10143000D01D7EF4703311F48A95E6CFE894015004
:1014400030F0080F0AF40027021708F4202F239524
:10145000022F7A3328F079E37D932A95E9F710C0BB
:101460007D932A9589F606949795679537951795F4
:101470001794E118F10A430B560BC90BD00998F0E9
:1014800023957E9173957A3308F070E37C93201353
:10149000B8F77E9170617D9330F0839571E37D9311
:1014A00070E32A95E1F71124EF90FF900F911F91BF
:1014B000CF91DF91992787FD90950895FC010590C4
:1014C000615070400110D8F7809590958E0F9F1F46
:1014D0000895FC016150704001900110D8F780958B
:1014E00090958E0F9F1F08950F931F93CF93DF93B7
:1014F0008C01EB018B8181FF1BC082FF0DC02E810F
:101500003F818C819D812817390764F4E881F98136
:101510000193F983E88306C0E885F985802F099552
:10152000892B31F48E819F8101969F838E8302C027
:101530000FEF1FEFC801DF91CF911F910F91089519
:10154000AEE0B0E0E5EAFAE0B8CE0D891E898F89F9
:10155000988D97FF02C080E090E801979E838D836D
:101560001A83098386E08C839E01255E3F4FCE015E
:101570000196698D7A8DA901E4DA4D815E8157FD6E
:101580000AC02F813885421753070CF49A01020FC5
:10159000131FF80110822E96E4E0ABCEFA01AA27C1
:1015A000283051F1203181F1E8946F936E7F6E5FA6
:1015B0007F4F8F4F9F4FAF4FB1E03ED0B4E03CD054
:1015C000670F781F891F9A1FA11D680F791F8A1F37
:1015D000911DA11D6A0F711D811D911DA11D20D09E
:1015E00009F468943F912AE0269F11243019305D58
:1015F0003193DEF6CF010895462F4770405D419349
:10160000B3E00FD0C9F7F6CF462F4F70405D4A3395
:1016100018F0495D31FD4052419302D0A9F7EACF5D
:10162000B4E0A6959795879577956795BA95C9F78C
:1016300000976105710508959B01AC010A2E06947F
:101640005795479537952795BA95C9F7620F731F38
:0C165000841F951FA01D0895F894FFCF83
:10165C000D0A436865636B2053756D204572726F7C
:10166C0072003025642E25640025642E256400301C
:10167C00256400256400496E7369646520203A0076
:10168C00430D0A004F757473696465203A002E305F
:10169C00430D0A0053656E73652020203A002E30EE
:1016AC00460D0A0048756D69646974793A00250D18
:1016BC000A0D0A000D0A4D6F64756C6520506F772A
:1016CC0065726564204F6E0D0A0D0A0054686572D0
:1016DC006D6F6D657465722056322E310A00204391
:1016EC006F70797269676874203230313120004133
:1016FC006E647269616E616B6973204861722E0A47
:10170C00007777772E63616E647269616E2E6772F3
:10171C002000494E203A20202020002820200020A4
:10172C0029004F55543A20202E3000483A202025CD
:04173C0000C80000E1
:00000001FF
